{
  "_format": "hh-sol-artifact-1",
  "contractName": "SwapExample",
  "sourceName": "contracts/SwapExample.sol",
  "abi": [
    {
      "inputs": [
        {
          "internalType": "address",
          "name": "_router",
          "type": "address"
        },
        {
          "internalType": "address",
          "name": "_factory",
          "type": "address"
        }
      ],
      "stateMutability": "nonpayable",
      "type": "constructor"
    },
    {
      "inputs": [
        {
          "internalType": "address",
          "name": "target",
          "type": "address"
        }
      ],
      "name": "AddressEmptyCode",
      "type": "error"
    },
    {
      "inputs": [
        {
          "internalType": "address",
          "name": "account",
          "type": "address"
        }
      ],
      "name": "AddressInsufficientBalance",
      "type": "error"
    },
    {
      "inputs": [],
      "name": "FailedInnerCall",
      "type": "error"
    },
    {
      "inputs": [
        {
          "internalType": "address",
          "name": "owner",
          "type": "address"
        }
      ],
      "name": "OwnableInvalidOwner",
      "type": "error"
    },
    {
      "inputs": [
        {
          "internalType": "address",
          "name": "account",
          "type": "address"
        }
      ],
      "name": "OwnableUnauthorizedAccount",
      "type": "error"
    },
    {
      "inputs": [
        {
          "internalType": "address",
          "name": "token",
          "type": "address"
        }
      ],
      "name": "SafeERC20FailedOperation",
      "type": "error"
    },
    {
      "anonymous": false,
      "inputs": [
        {
          "indexed": false,
          "internalType": "address",
          "name": "pair",
          "type": "address"
        },
        {
          "indexed": false,
          "internalType": "uint256",
          "name": "amountA",
          "type": "uint256"
        },
        {
          "indexed": false,
          "internalType": "uint256",
          "name": "amountB",
          "type": "uint256"
        },
        {
          "indexed": false,
          "internalType": "address",
          "name": "tokenA",
          "type": "address"
        },
        {
          "indexed": false,
          "internalType": "address",
          "name": "tokenB",
          "type": "address"
        },
        {
          "indexed": false,
          "internalType": "uint256",
          "name": "time",
          "type": "uint256"
        }
      ],
      "name": "AddLiquidity",
      "type": "event"
    },
    {
      "anonymous": false,
      "inputs": [
        {
          "indexed": true,
          "internalType": "address",
          "name": "previousOwner",
          "type": "address"
        },
        {
          "indexed": true,
          "internalType": "address",
          "name": "newOwner",
          "type": "address"
        }
      ],
      "name": "OwnershipTransferred",
      "type": "event"
    },
    {
      "anonymous": false,
      "inputs": [
        {
          "indexed": false,
          "internalType": "address",
          "name": "pair",
          "type": "address"
        },
        {
          "indexed": false,
          "internalType": "uint256",
          "name": "amountA",
          "type": "uint256"
        },
        {
          "indexed": false,
          "internalType": "uint256",
          "name": "amountB",
          "type": "uint256"
        },
        {
          "indexed": false,
          "internalType": "address",
          "name": "tokenA",
          "type": "address"
        },
        {
          "indexed": false,
          "internalType": "address",
          "name": "tokenB",
          "type": "address"
        },
        {
          "indexed": false,
          "internalType": "uint256",
          "name": "time",
          "type": "uint256"
        }
      ],
      "name": "RemoveLiquidity",
      "type": "event"
    },
    {
      "anonymous": false,
      "inputs": [
        {
          "indexed": false,
          "internalType": "address",
          "name": "pair",
          "type": "address"
        },
        {
          "indexed": false,
          "internalType": "uint256",
          "name": "amountIn",
          "type": "uint256"
        },
        {
          "indexed": false,
          "internalType": "uint256",
          "name": "amountOut",
          "type": "uint256"
        },
        {
          "indexed": false,
          "internalType": "address",
          "name": "tokenIn",
          "type": "address"
        },
        {
          "indexed": false,
          "internalType": "address",
          "name": "tokenOut",
          "type": "address"
        },
        {
          "indexed": false,
          "internalType": "uint256",
          "name": "time",
          "type": "uint256"
        }
      ],
      "name": "Swap",
      "type": "event"
    },
    {
      "anonymous": false,
      "inputs": [
        {
          "indexed": false,
          "internalType": "address",
          "name": "pair",
          "type": "address"
        },
        {
          "indexed": false,
          "internalType": "uint256",
          "name": "price",
          "type": "uint256"
        }
      ],
      "name": "UpdatePrice",
      "type": "event"
    },
    {
      "inputs": [
        {
          "internalType": "address",
          "name": "_tokenA",
          "type": "address"
        },
        {
          "internalType": "address",
          "name": "_tokenB",
          "type": "address"
        },
        {
          "internalType": "uint256",
          "name": "_amountA",
          "type": "uint256"
        },
        {
          "internalType": "uint256",
          "name": "_amountB",
          "type": "uint256"
        }
      ],
      "name": "addLiquidity",
      "outputs": [
        {
          "internalType": "uint256",
          "name": "amountA",
          "type": "uint256"
        },
        {
          "internalType": "uint256",
          "name": "amountB",
          "type": "uint256"
        },
        {
          "internalType": "uint256",
          "name": "liquidity",
          "type": "uint256"
        }
      ],
      "stateMutability": "nonpayable",
      "type": "function"
    },
    {
      "inputs": [
        {
          "internalType": "uint256",
          "name": "amountOut",
          "type": "uint256"
        },
        {
          "internalType": "address[]",
          "name": "path",
          "type": "address[]"
        }
      ],
      "name": "getAmountsIn",
      "outputs": [
        {
          "internalType": "uint256",
          "name": "",
          "type": "uint256"
        }
      ],
      "stateMutability": "view",
      "type": "function"
    },
    {
      "inputs": [
        {
          "internalType": "uint256",
          "name": "amountIn",
          "type": "uint256"
        },
        {
          "internalType": "address[]",
          "name": "path",
          "type": "address[]"
        }
      ],
      "name": "getAmountsOut",
      "outputs": [
        {
          "internalType": "uint256",
          "name": "",
          "type": "uint256"
        }
      ],
      "stateMutability": "view",
      "type": "function"
    },
    {
      "inputs": [],
      "name": "owner",
      "outputs": [
        {
          "internalType": "address",
          "name": "",
          "type": "address"
        }
      ],
      "stateMutability": "view",
      "type": "function"
    },
    {
      "inputs": [
        {
          "internalType": "uint256",
          "name": "amountA",
          "type": "uint256"
        },
        {
          "internalType": "address",
          "name": "tokenA",
          "type": "address"
        },
        {
          "internalType": "address",
          "name": "tokenB",
          "type": "address"
        }
      ],
      "name": "quote",
      "outputs": [
        {
          "internalType": "uint256",
          "name": "amountB",
          "type": "uint256"
        }
      ],
      "stateMutability": "view",
      "type": "function"
    },
    {
      "inputs": [
        {
          "internalType": "address",
          "name": "_tokenA",
          "type": "address"
        },
        {
          "internalType": "address",
          "name": "_tokenB",
          "type": "address"
        }
      ],
      "name": "removeLiquidity",
      "outputs": [
        {
          "internalType": "uint256",
          "name": "amountA",
          "type": "uint256"
        },
        {
          "internalType": "uint256",
          "name": "amountB",
          "type": "uint256"
        }
      ],
      "stateMutability": "nonpayable",
      "type": "function"
    },
    {
      "inputs": [],
      "name": "renounceOwnership",
      "outputs": [],
      "stateMutability": "nonpayable",
      "type": "function"
    },
    {
      "inputs": [
        {
          "internalType": "address",
          "name": "_pair",
          "type": "address"
        },
        {
          "internalType": "address",
          "name": "_oracle",
          "type": "address"
        }
      ],
      "name": "setOracle",
      "outputs": [],
      "stateMutability": "nonpayable",
      "type": "function"
    },
    {
      "inputs": [
        {
          "internalType": "uint256",
          "name": "amountIn",
          "type": "uint256"
        },
        {
          "internalType": "uint256",
          "name": "amountOutMin",
          "type": "uint256"
        },
        {
          "internalType": "address[]",
          "name": "path",
          "type": "address[]"
        }
      ],
      "name": "swapExactTokensForTokens",
      "outputs": [
        {
          "internalType": "uint256",
          "name": "amountOut",
          "type": "uint256"
        }
      ],
      "stateMutability": "nonpayable",
      "type": "function"
    },
    {
      "inputs": [
        {
          "internalType": "uint256",
          "name": "amountOut",
          "type": "uint256"
        },
        {
          "internalType": "uint256",
          "name": "amountInMax",
          "type": "uint256"
        },
        {
          "internalType": "address[]",
          "name": "path",
          "type": "address[]"
        }
      ],
      "name": "swapTokensForExactTokens",
      "outputs": [
        {
          "internalType": "uint256",
          "name": "amountIn",
          "type": "uint256"
        }
      ],
      "stateMutability": "nonpayable",
      "type": "function"
    },
    {
      "inputs": [
        {
          "internalType": "address",
          "name": "newOwner",
          "type": "address"
        }
      ],
      "name": "transferOwnership",
      "outputs": [],
      "stateMutability": "nonpayable",
      "type": "function"
    }
  ],
  "bytecode": "0x60806040523480156200001157600080fd5b50604051620022bf380380620022bf833981016040819052620000349162000106565b33806200005b57604051631e4fbdf760e01b81526000600482015260240160405180910390fd5b620000668162000099565b50600180546001600160a01b039384166001600160a01b031991821617909155600280549290931691161790556200013e565b600080546001600160a01b038381166001600160a01b0319831681178455604051919092169283917f8be0079c531659141344cd1fd0a4f28419497f9722a3daafe3b4186f6b6457e09190a35050565b80516001600160a01b03811681146200010157600080fd5b919050565b600080604083850312156200011a57600080fd5b6200012583620000e9565b91506200013560208401620000e9565b90509250929050565b612171806200014e6000396000f3fe608060405234801561001057600080fd5b50600436106100a95760003560e01c806386818f261161007157806386818f26146101175780638da5cb5b1461012a5780639cf38f7c14610145578063cf6c62ea1461016d578063d06ca61f1461019b578063f2fde38b146101ae57600080fd5b80631f00ca74146100ae578063397d4b4a146100d45780635c38eb3a146100e7578063715018a6146100fc57806380ee43f514610104575b600080fd5b6100c16100bc366004611bea565b6101c1565b6040519081526020015b60405180910390f35b6100c16100e2366004611c36565b61023f565b6100fa6100f5366004611c9e565b6105a2565b005b6100fa6105d8565b6100c1610112366004611cd7565b6105ec565b6100c1610125366004611c36565b610623565b6000546040516001600160a01b0390911681526020016100cb565b610158610153366004611c9e565b610918565b604080519283526020830191909152016100cb565b61018061017b366004611d19565b610b79565b604080519384526020840192909252908201526060016100cb565b6100c16101a9366004611bea565b610e1f565b6100fa6101bc366004611d5f565b610e8a565b600080610217600260009054906101000a90046001600160a01b031686868680806020026020016040519081016040528093929190818152602001838360200280828437600092019190915250610ecd92505050565b90508060008151811061022c5761022c611d7c565b60200260200101519150505b9392505050565b60006102803330868686600081811061025a5761025a611d7c565b905060200201602081019061026f9190611d5f565b6001600160a01b0316929190611063565b8282600081811061029357610293611d7c565b90506020020160208101906102a89190611d5f565b60015460405163095ea7b360e01b81526001600160a01b0391821660048201526024810187905291169063095ea7b3906044016020604051808303816000875af11580156102fa573d6000803e3d6000fd5b505050506040513d601f19601f8201168201806040525081019061031e9190611d92565b506002546000906001600160a01b031663e6a439058585848161034357610343611d7c565b90506020020160208101906103589190611d5f565b8686600181811061036b5761036b611d7c565b90506020020160208101906103809190611d5f565b6040516001600160e01b031960e085901b1681526001600160a01b03928316600482015291166024820152604401602060405180830381865afa1580156103cb573d6000803e3d6000fd5b505050506040513d601f19601f820116820180604052508101906103ef9190611db4565b6001549091506000906001600160a01b0316638803dbee888888883361041742610258611de7565b6040518763ffffffff1660e01b815260040161043896959493929190611dfa565b6000604051808303816000875af1158015610457573d6000803e3d6000fd5b505050506040513d6000823e601f3d908101601f1916820160405261047f9190810190611e83565b90508060008151811061049457610494611d7c565b602002602001015192506104e63384886104ae9190611f41565b878760008181106104c1576104c1611d7c565b90506020020160208101906104d69190611d5f565b6001600160a01b031691906110d0565b6104ef82611106565b7f147de4d953f10647ec5728ed3798b0375eb68538f2aa42376b1b2e7f50afa29582848360018151811061052557610525611d7c565b60200260200101518888600081811061054057610540611d7c565b90506020020160208101906105559190611d5f565b8989600181811061056857610568611d7c565b905060200201602081019061057d9190611d5f565b4260405161059096959493929190611f54565b60405180910390a15050949350505050565b6105aa611250565b6001600160a01b03918216600090815260036020526040902080546001600160a01b03191691909216179055565b6105e0611250565b6105ea600061127d565b565b6002546000908190819061060a906001600160a01b031686866112cd565b91509150610619868383611397565b9695505050505050565b600061063e3330878686600081811061025a5761025a611d7c565b8282600081811061065157610651611d7c565b90506020020160208101906106669190611d5f565b60015460405163095ea7b360e01b81526001600160a01b0391821660048201526024810188905291169063095ea7b3906044016020604051808303816000875af11580156106b8573d6000803e3d6000fd5b505050506040513d601f19601f820116820180604052508101906106dc9190611d92565b506002546000906001600160a01b031663e6a439058585848161070157610701611d7c565b90506020020160208101906107169190611d5f565b8686600181811061072957610729611d7c565b905060200201602081019061073e9190611d5f565b6040516001600160e01b031960e085901b1681526001600160a01b03928316600482015291166024820152604401602060405180830381865afa158015610789573d6000803e3d6000fd5b505050506040513d601f19601f820116820180604052508101906107ad9190611db4565b6001549091506000906001600160a01b03166338ed173988888888336107d542610258611de7565b6040518763ffffffff1660e01b81526004016107f696959493929190611dfa565b6000604051808303816000875af1158015610815573d6000803e3d6000fd5b505050506040513d6000823e601f3d908101601f1916820160405261083d9190810190611e83565b905061084882611106565b7f147de4d953f10647ec5728ed3798b0375eb68538f2aa42376b1b2e7f50afa29582888360018151811061087e5761087e611d7c565b60200260200101518888600081811061089957610899611d7c565b90506020020160208101906108ae9190611d5f565b898960018181106108c1576108c1611d7c565b90506020020160208101906108d69190611d5f565b426040516108e996959493929190611f54565b60405180910390a18060018151811061090457610904611d7c565b602002602001015192505050949350505050565b60025460405163e6a4390560e01b81526001600160a01b0384811660048301528381166024830152600092839283929091169063e6a4390590604401602060405180830381865afa158015610971573d6000803e3d6000fd5b505050506040513d601f19601f820116820180604052508101906109959190611db4565b6040516370a0823160e01b81523060048201529091506000906001600160a01b038316906370a0823190602401602060405180830381865afa1580156109df573d6000803e3d6000fd5b505050506040513d601f19601f82011682018060405250810190610a039190611f8f565b60015460405163095ea7b360e01b81526001600160a01b0391821660048201526024810183905291925083169063095ea7b3906044016020604051808303816000875af1158015610a58573d6000803e3d6000fd5b505050506040513d601f19601f82011682018060405250810190610a7c9190611d92565b5060018054604051635d5155ef60e11b81526001600160a01b0389811660048301528881166024830152604482018590526064820184905260848201939093523060a48201524260c48201526000928392169063baa2abde9060e40160408051808303816000875af1158015610af6573d6000803e3d6000fd5b505050506040513d601f19601f82011682018060405250810190610b1a9190611fa8565b91509150819550809450610b2d84611106565b7f68e270bbebc754c122585dd63766b1859dee33b03e57ae9ac924c973f22a29598487878b8b42604051610b6696959493929190611f54565b60405180910390a1505050509250929050565b60008080610b926001600160a01b038816333088611063565b610ba76001600160a01b038716333087611063565b60015460405163095ea7b360e01b81526001600160a01b039182166004820152602481018790529088169063095ea7b3906044016020604051808303816000875af1158015610bfa573d6000803e3d6000fd5b505050506040513d601f19601f82011682018060405250810190610c1e9190611d92565b5060015460405163095ea7b360e01b81526001600160a01b039182166004820152602481018690529087169063095ea7b3906044016020604051808303816000875af1158015610c72573d6000803e3d6000fd5b505050506040513d601f19601f82011682018060405250810190610c969190611d92565b5060025460405163e6a4390560e01b81526001600160a01b0389811660048301528881166024830152600092169063e6a4390590604401602060405180830381865afa158015610cea573d6000803e3d6000fd5b505050506040513d601f19601f82011682018060405250810190610d0e9190611db4565b6001805460405162e8e33760e81b81526001600160a01b038c811660048301528b81166024830152604482018b9052606482018a90526084820184905260a48201939093523060c48201524260e482015292935060009283928392169063e8e3370090610104016060604051808303816000875af1158015610d94573d6000803e3d6000fd5b505050506040513d601f19601f82011682018060405250810190610db89190611fcc565b925092509250610dc784611106565b8296508195508094507fc4cac3eb8b3236fc80737fb87163fd4c230e3b360c6d49ed900d97725377d8388488888e8e42604051610e0996959493929190611f54565b60405180910390a1505050509450945094915050565b600080610e75600260009054906101000a90046001600160a01b03168686868080602002602001604051908101604052809392919081815260200183836020028082843760009201919091525061143f92505050565b90508060018151811061022c5761022c611d7c565b610e92611250565b6001600160a01b038116610ec157604051631e4fbdf760e01b8152600060048201526024015b60405180910390fd5b610eca8161127d565b50565b6060600282511015610f215760405162461bcd60e51b815260206004820152601e60248201527f556e697377617056324c6962726172793a20494e56414c49445f5041544800006044820152606401610eb8565b815167ffffffffffffffff811115610f3b57610f3b611e6d565b604051908082528060200260200182016040528015610f64578160200160208202803683370190505b509050828160018351610f779190611f41565b81518110610f8757610f87611d7c565b602002602001018181525050600060018351610fa39190611f41565b90505b801561105b57600080610ff68786610fbf600187611f41565b81518110610fcf57610fcf611d7c565b6020026020010151878681518110610fe957610fe9611d7c565b60200260200101516112cd565b9150915061101e84848151811061100f5761100f611d7c565b602002602001015183836115b5565b8461102a600186611f41565b8151811061103a5761103a611d7c565b6020026020010181815250505050808061105390611ffa565b915050610fa6565b509392505050565b6040516001600160a01b0384811660248301528381166044830152606482018390526110ca9186918216906323b872dd906084015b604051602081830303815290604052915060e01b6020820180516001600160e01b03838183161783525050505061168a565b50505050565b6040516001600160a01b0383811660248301526044820183905261110191859182169063a9059cbb90606401611098565b505050565b6001600160a01b03808216600090815260036020908152604080832054815163a17a268560e01b815291519394169263a17a2685926004808401939192918290030181865afa15801561115d573d6000803e3d6000fd5b505050506040513d601f19601f820116820180604052508101906111819190611d92565b9050801561124c576001600160a01b03808316600090815260036020908152604080832054815163a2e6204560e01b815291519394169263a2e6204592600480840193919291829003018187875af11580156111e1573d6000803e3d6000fd5b505050506040513d601f19601f820116820180604052508101906112059190611f8f565b604080516001600160a01b0386168152602081018390529192507f80c6dfa833b7ba22065492cca0507468646fe3181ba5c3690c6c4936e2d51688910160405180910390a1505b5050565b6000546001600160a01b031633146105ea5760405163118cdaa760e01b8152336004820152602401610eb8565b600080546001600160a01b038381166001600160a01b0319831681178455604051919092169283917f8be0079c531659141344cd1fd0a4f28419497f9722a3daafe3b4186f6b6457e09190a35050565b60008060006112dc85856116ed565b5090506000806112ed8888886117e4565b6001600160a01b0316630902f1ac6040518163ffffffff1660e01b8152600401606060405180830381865afa15801561132a573d6000803e3d6000fd5b505050506040513d601f19601f8201168201806040525081019061134e919061202d565b506001600160701b031691506001600160701b03169150826001600160a01b0316876001600160a01b031614611385578082611388565b81815b90999098509650505050505050565b60008084116113f65760405162461bcd60e51b815260206004820152602560248201527f556e697377617056324c6962726172793a20494e53554646494349454e545f416044820152641353d5539560da1b6064820152608401610eb8565b6000831180156114065750600082115b6114225760405162461bcd60e51b8152600401610eb890612072565b8261142d85846118bd565b61143791906120ba565b949350505050565b60606002825110156114935760405162461bcd60e51b815260206004820152601e60248201527f556e697377617056324c6962726172793a20494e56414c49445f5041544800006044820152606401610eb8565b815167ffffffffffffffff8111156114ad576114ad611e6d565b6040519080825280602002602001820160405280156114d6578160200160208202803683370190505b50905082816000815181106114ed576114ed611d7c565b60200260200101818152505060005b6001835161150a9190611f41565b81101561105b576000806115508786858151811061152a5761152a611d7c565b6020026020010151878660016115409190611de7565b81518110610fe957610fe9611d7c565b9150915061157884848151811061156957611569611d7c565b6020026020010151838361192a565b84611584856001611de7565b8151811061159457611594611d7c565b602002602001018181525050505080806115ad906120dc565b9150506114fc565b600080841161161b5760405162461bcd60e51b815260206004820152602c60248201527f556e697377617056324c6962726172793a20494e53554646494349454e545f4f60448201526b155514155517d05353d5539560a21b6064820152608401610eb8565b60008311801561162b5750600082115b6116475760405162461bcd60e51b8152600401610eb890612072565b600061165f6103e861165986886118bd565b906118bd565b905060006116736103e56116598689611a02565b9050610619600161168483856120ba565b90611a58565b600061169f6001600160a01b03841683611aad565b905080516000141580156116c45750808060200190518101906116c29190611d92565b155b1561110157604051635274afe760e01b81526001600160a01b0384166004820152602401610eb8565b600080826001600160a01b0316846001600160a01b03160361175f5760405162461bcd60e51b815260206004820152602560248201527f556e697377617056324c6962726172793a204944454e544943414c5f41444452604482015264455353455360d81b6064820152608401610eb8565b826001600160a01b0316846001600160a01b03161061177f578284611782565b83835b90925090506001600160a01b0382166117dd5760405162461bcd60e51b815260206004820152601e60248201527f556e697377617056324c6962726172793a205a45524f5f4144445245535300006044820152606401610eb8565b9250929050565b60008060006117f385856116ed565b6040516bffffffffffffffffffffffff19606084811b8216602084015283901b166034820152919350915086906048016040516020818303038152906040528051906020012060405160200161189b9291906001600160f81b0319815260609290921b6bffffffffffffffffffffffff1916600183015260158201527f4156ccc01dad273e6c65c4335c428a2ff4a4b0c95a9a228f6bfed45a069d3fe7603582015260550190565b60408051601f1981840301815291905280516020909101209695505050505050565b60008115806118e1575082826118d381836120f5565b92506118df90836120ba565b145b6119245760405162461bcd60e51b815260206004820152601460248201527364732d6d6174682d6d756c2d6f766572666c6f7760601b6044820152606401610eb8565b92915050565b600080841161198f5760405162461bcd60e51b815260206004820152602b60248201527f556e697377617056324c6962726172793a20494e53554646494349454e545f4960448201526a1394155517d05353d5539560aa1b6064820152608401610eb8565b60008311801561199f5750600082115b6119bb5760405162461bcd60e51b8152600401610eb890612072565b60006119c9856103e56118bd565b905060006119d782856118bd565b905060006119eb83611684886103e86118bd565b90506119f781836120ba565b979650505050505050565b600082611a0f8382611f41565b91508111156119245760405162461bcd60e51b815260206004820152601560248201527464732d6d6174682d7375622d756e646572666c6f7760581b6044820152606401610eb8565b600082611a658382611de7565b91508110156119245760405162461bcd60e51b815260206004820152601460248201527364732d6d6174682d6164642d6f766572666c6f7760601b6044820152606401610eb8565b60606102388383600084600080856001600160a01b03168486604051611ad3919061210c565b60006040518083038185875af1925050503d8060008114611b10576040519150601f19603f3d011682016040523d82523d6000602084013e611b15565b606091505b5091509150610619868383606082611b3557611b3082611b7c565b610238565b8151158015611b4c57506001600160a01b0384163b155b15611b7557604051639996b31560e01b81526001600160a01b0385166004820152602401610eb8565b5080610238565b805115611b8c5780518082602001fd5b604051630a12f52160e11b815260040160405180910390fd5b60008083601f840112611bb757600080fd5b50813567ffffffffffffffff811115611bcf57600080fd5b6020830191508360208260051b85010111156117dd57600080fd5b600080600060408486031215611bff57600080fd5b83359250602084013567ffffffffffffffff811115611c1d57600080fd5b611c2986828701611ba5565b9497909650939450505050565b60008060008060608587031215611c4c57600080fd5b8435935060208501359250604085013567ffffffffffffffff811115611c7157600080fd5b611c7d87828801611ba5565b95989497509550505050565b6001600160a01b0381168114610eca57600080fd5b60008060408385031215611cb157600080fd5b8235611cbc81611c89565b91506020830135611ccc81611c89565b809150509250929050565b600080600060608486031215611cec57600080fd5b833592506020840135611cfe81611c89565b91506040840135611d0e81611c89565b809150509250925092565b60008060008060808587031215611d2f57600080fd5b8435611d3a81611c89565b93506020850135611d4a81611c89565b93969395505050506040820135916060013590565b600060208284031215611d7157600080fd5b813561023881611c89565b634e487b7160e01b600052603260045260246000fd5b600060208284031215611da457600080fd5b8151801515811461023857600080fd5b600060208284031215611dc657600080fd5b815161023881611c89565b634e487b7160e01b600052601160045260246000fd5b8082018082111561192457611924611dd1565b868152602080820187905260a0604083018190528201859052600090869060c08401835b88811015611e4c578335611e3181611c89565b6001600160a01b031682529282019290820190600101611e1e565b506001600160a01b0396909616606085015250505060800152949350505050565b634e487b7160e01b600052604160045260246000fd5b60006020808385031215611e9657600080fd5b825167ffffffffffffffff80821115611eae57600080fd5b818501915085601f830112611ec257600080fd5b815181811115611ed457611ed4611e6d565b8060051b604051601f19603f83011681018181108582111715611ef957611ef9611e6d565b604052918252848201925083810185019188831115611f1757600080fd5b938501935b82851015611f3557845184529385019392850192611f1c565b98975050505050505050565b8181038181111561192457611924611dd1565b6001600160a01b039687168152602081019590955260408501939093529084166060840152909216608082015260a081019190915260c00190565b600060208284031215611fa157600080fd5b5051919050565b60008060408385031215611fbb57600080fd5b505080516020909101519092909150565b600080600060608486031215611fe157600080fd5b8351925060208401519150604084015190509250925092565b60008161200957612009611dd1565b506000190190565b80516001600160701b038116811461202857600080fd5b919050565b60008060006060848603121561204257600080fd5b61204b84612011565b925061205960208501612011565b9150604084015163ffffffff81168114611d0e57600080fd5b60208082526028908201527f556e697377617056324c6962726172793a20494e53554646494349454e545f4c604082015267495155494449545960c01b606082015260800190565b6000826120d757634e487b7160e01b600052601260045260246000fd5b500490565b6000600182016120ee576120ee611dd1565b5060010190565b808202811582820484141761192457611924611dd1565b6000825160005b8181101561212d5760208186018101518583015201612113565b50600092019182525091905056fea26469706673582212207446c6aec4fed257a76029d6388af78037175585f37d775ea7389743b0ccb77e64736f6c63430008140033",
  "linkReferences": {},
  "deployedLinkReferences": {}
}